:100000000C9491080C94BB1F0C94941F0C94B90889
:100010000C94B9080C94B9080C94B9080C946C1E93
:100020000C94B9080C94B9080C94B9080C94E21F0C
:100030000C94B9080C94B9080C94B9080C94B9083C
:100040000C944A1F0C94B9080C94B61D0C94901D86
:100050000C94B9080C94B9080C94B9080C94B9081C
:100060000C94B9080C94B9080C0E240E390EB60E77
:100070003D0F570F710F8B0FA60FAD0FBC0FD70F92
:1000800005A84CCDB2D44EB93836A9020C50B9915E
:100090008688083CA6AAAA2ABE000000803F10104D
:1000A00030020020C0C0F0F03C3CFFFFFFFF3C3CB2
:1000B000F0F0C0C0C0C0F0F03C3CFFFFFFFF3C3C94
:1000C000F0F0C0C0C3C33333CFCF33333333CFCFDC
:1000D0003333C3C33333CFCF03030F0F0F0F0303E8
:1000E000CFCF3333181030020030F0F0FCFCFCFCB2
:1000F0003C3C3F3FFFFFFFFF3F3F3C3CFCFCFCFC28
:10010000F0F0F0F0FCFCFCFC3C3C3F3FFFFFFFFF4D
:100110003F3F3C3CFCFCFCFCF0F0C3C3C3C33333A7
:100120003F3F0F0F333333330F0F3F3F3333C3C3DF
:10013000C3C303033333FFFFCFCF0F0F3333333347
:100140000F0FCFCFFFFF3333030316103002002C05
:10015000FCFCC0C0F3F33C3CF0F0F0F0F0F03C3CB1
:10016000F3F3C0C0FCFC0000C0C0F3F33C3CF0F073
:10017000F0F0F0F03C3CF3F3C0C000000303CFCF3D
:100180003F3F0F0F0F0F0F0F0F0F0F0F3F3FCFCF3F
:1001900003033F3F03033F3FCFCFCFCF0F0FCFCF5F
:1001A000CFCF3F3F03033F3F0C30300B012000C057
:1001B000F87C3E3EFCF8C0000000000080E078FEC5
:1001C000FE000000000000F07C3C3E3EFEFCE00033
:1001D0000000007C3E3E3EFEF8C000000000000033
:1001E000000000F8FEFE0000000000FEFE3E3E3E65
:1001F0003E3E00000000000080F0FC3E3E3EFC0061
:100200000000003E3E3E3E3E3E3EFEFE0000000040
:10021000C0F8FE3E7EFCE00000000000E0FC7E3EF8
:10022000FEF8C000000000000000C0E0C0000000B8
:100230000000F0FF0F000000F9FFFFF000000000D9
:10024000070300FFFF0000000000000100000000A5
:1002500000FFFF000000000000000000FFFF0000A2
:100260000000000000E0FF1FFFFF0000000000FF93
:10027000FF00000000000000000000E0FF3F000061
:10028000000000000000000000000000C0FC7F0330
:1002900000000000FFFF000000FFFF00000000FE64
:1002A000FF03000000FFFFF00000000000003F7FA0
:1002B0003F0000000000FFFF0000E0FF1F00FFFF05
:1002C00000000000000000FFFF0000000000000030
:1002D000000000E0FE1F010000000000F8F8FCFF35
:1002E000C7000000000000C0FE3F0300FFFF000049
:1002F0000000003F3F3E7EFCF8E00000000000FFF1
:10030000FF80F07C7CF8F00000000000000080F826
:10031000FF07000000000000019FFFF8FE1F010022
:10032000000000FFFFC0000080FFFFFF0000000092
:1003300000000000000000000000FFFFC0FC7F0381
:100340000000FFFF00000000000000FFFF000000B1
:100350000000000000E0FE0F0100000000000000AF
:10036000000000010FFFF8000000F8FFE7E0E0E008
:10037000FFFFE0E0E00000000000000007FFFE00DB
:10038000000000FFFFFF03000001FFFF000000006E
:1003900000F0FF0F00000000000000C0FC3F03035E
:1003A0001FFFFCC0000000000F1F3E3E0F01FFFFBB
:1003B000000000000000008000000000000007FFB7
:1003C000FF07000000FCFF0700000000000000FF26
:1003D000FF000000000000E0FE0F00000000000031
:1003E0000000000000000000C0FF7F0000000303C9
:1003F00003030303FFFF03030300000000000000EA
:10040000C0FF7F000000000FFFFF80000080FF7F23
:1004100000000000FEFF030000000000000000FFDD
:10042000FF8000000080FFFF0000000000000000CF
:1004300080FCFF07000000000000FFFFFF0000003D
:10044000000000031F3F7C7C3F1F030000000000F2
:100450007C7C7C7F7F7C7C7C0000007F7F7C7C7C44
:100460007C7C7C000000003F7E7C7C7E1F070000BF
:1004700000000000000000007F7F00000000001F5F
:100480003E7C7C3E1F07000000000000031F7F7CB5
:100490007C3F0700000000007F7F0000000000009C
:1004A000000000011F3F7E7C7E3F1F010000000016
:1004B0003E7C7C7E3F0F0100000000000000000138
:1004C0000000000000000A102E0C011400000000C3
:1004D000000000000000000000000000000000001C
:1004E00078FC020303030302FC7800000000000014
:1004F0000000FF7E0000028383838302FC780000FB
:10050000028383838302FC787EFF008080808000EA
:10051000FF7E78FC028383838302000078FC0283E1
:100520008383830200000002030303030302FC78B9
:1005300078FC028383838302FC7878FC02838383C4
:100540008302FC7800000060F0F060000000000012
:1005500000000000000000001E3F40C0C0C0C040BE
:100560003F1E0000000000000000FF7E1C3E41C155
:10057000C1C1C1410000000041C1C1C1C1413E1C17
:100580000000010101010101FF7E000041C1C1C164
:10059000C1413E1C1C3E41C1C1C1C1413E1C0000C5
:1005A000000000000000FF7E1C3E41C1C1C1C141EE
:1005B0003E1C000041C1C1C1C1413E1C0810206069
:1005C00002380000000000000000000000FE0000F3
:1005D000000000000E000E00000000D0BE90D0BE53
:1005E0009000001C62FFC28000000C12924CB08888
:1005F0000600807C62B21CC0000000000E0E0000ED
:10060000000000E01804020200000002020418E0EA
:1006100000000024187E18240000808080F0808074
:10062000800000000000000000000080808080004A
:1006300000000000000000000000000080601806BC
:100640000000F804C2320CF80000000404FE0000B0
:10065000000000028242221C00000002222222DC52
:100660000000C0A09884FE808000001E121222C2EA
:100670000000F844222222C00000000202C2320A16
:100680000600008C5222528C00003C42424226F866
:10069000000000003030000000000000303000009A
:1006A00000008080404020201000404040404040FA
:1006B0000000102020404080800000028242221C66
:1006C0000000000000000000000000000005000025
:1006D000000000000000000000000007000007000C
:1006E00000000004040F04030000040201030404DA
:1006F00003000304040405030400000000000000DC
:100700000000000306081010000000101008060387
:1007100000000000000000000000000000070000D2
:1007200000000000160E00000000000000000000A5
:1007300000000000060600000000040201000000A6
:100740000000010304040201000000040407040483
:10075000000000070404040400000004040404036F
:10076000000000000000070000000004040404036F
:100770000000010204040403000000000700000060
:100780000000000304040403000000040404020148
:10079000000000000606000000000000160E000029
:1007A0000000000001010202040001010101010139
:1007B000000004020201010000000000050000002A
:1007C0000000F804728AFA84780000C0380638C045
:1007D000000000FE222222DC0000F80402020202D5
:1007E0000000FE02020204F8000000FE2222222283
:1007F000000000FE222222220000F804020222E26F
:100800000000FE20202020FE0000000202FE020266
:1008100000000000000202FE0000FE40B0080402DA
:10082000000000FE000000000000FE0C7080700C54
:10083000FE00FE0C30C000FE0000F804020204F8C6
:100840000000FE424242221C0000F804020204F8AA
:10085000000000FE4242A21C0000001C2242428016
:100860000000020202FE02020200FE00000000FE82
:1008700000000638C000C03806003EC0F00EF0C0D0
:100880003E000006986098060000000618E0180672
:1008900000000202C2320A0600000000FE0202024C
:1008A0000200000618608000000002020202FE0042
:1008B000000040300C0C3040000000000000000040
:1008C000000001020404040000000601010101010E
:1008D00006000007040404030000010204040404E9
:1008E00000000704040402010000000704040404DB
:1008F00000000007000000000000010204040407DB
:1009000000000700000000070000000404070404C2
:1009100000000004040404030000070000010204B6
:1009200000000007040404040000070000010000A8
:100930000700070000000307000001020404020191
:10094000000007000000000000000102040C12116A
:100950001000000700000106000000040404040366
:10096000000000000007000000000304040404036A
:100970000000000001060100000000070000000761
:100980000000000601000106000000000007000052
:100990000000060504040404000000001F101010ED
:1009A00010000000000001020400101010101F00D1
:1009B0000000000000000000000008080808080807
:1009C0000000000002040000000000E0101010F021
:1009D000000000FE201010E0000000E010101010D9
:1009E000000000E0101010FE000000E0909090E089
:1009F00000000020FC222222020000E0101010F073
:100A0000000000FE201010E000001010F2000000B6
:100A1000000000101010F200000000FE80402010C6
:100A20000000000202FE00000000F02010F0201084
:100A3000F00000F0201010E0000000E0101010E0C6
:100A4000000000F0201010E0000000E0101010F096
:100A5000000000F0201010700000006090909020C6
:100A60000000002020FC2020200000F0000000F00A
:100A700000000070800080700000F000C030C000F6
:100A8000F0000030C0C0300000000030C0008070B6
:100A9000000000101090503000000080807E0202A4
:100AA0000000000000FE000000000002027E8080C6
:100AB00000000080800000008000000000000000B6
:100AC0000000000000000000000000030404020712
:100AD00000000007040404030000000304040404ED
:100AE00000000003040402070000000304040404DF
:100AF0000000000007000000000000332424221F33
:100B000000000007000000070000000007040400C8
:100B10000000202020201F00000000070001020428
:100B200000000000000704040000070000070000A8
:100B3000070000070000000700000003040404038E
:100B40000000003F04040403000000030404023F0B
:100B5000000000070000000000000002040404037D
:100B60000000000000030404040000030404020762
:100B7000000000000304030000000106010001065C
:100B8000010000060101060000002020310E0300D4
:100B9000000000060504040400000000001F1010FF
:100BA000000000000007000000000010101F0000FF
:100BB0000000010000010101000000000000000031
:100BC0000000050800FF0C4B00000000003E5B4FDA
:100BD0005B3E3E6B4F6B3E1C3E7C3E1C183C7E3C9D
:100BE000181C577D571C1C5E7F5E1C00183C1800AB
:100BF000FFE7C3E7FF0018241800FFE7DBE7FF303B
:100C0000483A060E2629792926407F050507407FA8
:100C100005253F5A3CE73C5A7F3E1C1C08081C1C1B
:100C20003E7F14227F22145F5F005F5F06097F0111
:100C30007F006689956A606060606094A2FFA294FC
:100C400008047E040810207E201008082A1C0808CA
:100C50001C2A08081E101010100C1E0C1E0C303818
:100C60003E3830060E3E0E06000000000000005F19
:100C700000000007000700147F147F14242A7F2A35
:100C800012231308646236495620500008070300F7
:100C9000001C2241000041221C002A1C7F1C2A0843
:100CA000083E0808008070300008080808080000A6
:100CB00060600020100804023E5149453E00427F1A
:100CC000400072494949462141494D331814127F69
:100CD0001027454545393C4A494931412111090709
:100CE0003649494936464949291E0000140000008A
:100CF000403400000008142241141414141400415C
:100D000022140802015909063E415D594E7C121118
:100D1000127C7F494949363E414141227F41414150
:100D20003E7F494949417F090909013E41415173CB
:100D30007F0808087F00417F41002040413F017F3C
:100D4000081422417F404040407F021C027F7F0404
:100D500008107F3E4141413E7F090909063E41514D
:100D6000215E7F09192946264949493203017F013D
:100D7000033F4040403F1F2040201F3F4038403F3E
:100D8000631408146303047804036159494D430054
:100D90007F4141410204081020004141417F04028B
:100DA0000102044040404040000307080020545422
:100DB00078407F2844443838444444283844442800
:100DC0007F385454541800087E090218A4A49C7853
:100DD0007F0804047800447D40002040403D007FAF
:100DE0001028440000417F40007C047804787C088F
:100DF0000404783844444438FC1824241818242463
:100E000018FC7C08040408485454542404043F4447
:100E1000243C4040207C1C2040201C3C4030403C76
:100E200044281028444C9090907C4464544C4400D6
:100E3000083641000000770000004136080002013A
:100E40000204023C2623263C1EA1A161123A404026
:100E5000207A3854545559215555794121545478A4
:100E600041215554784020545579400C1E5272123D
:100E700039555555593954545459395554545800C5
:100E800000457C410002457D420001457C40F0293F
:100E90002429F0F0282528F07C545545002054548E
:100EA0007C547C0A097F49324949493232484848D2
:100EB00032324A4848303A4141217A3A4240207819
:100EC000009DA0A07D39444444393D4040403D3C14
:100ED00024FF2424487E4943662B2FFC2F2BFF0937
:100EE00029F620C0887E090320545479410000442B
:100EF0007D413048484A32384040227A007A0A0A16
:100F0000727D0D19317D2629292F28262929292688
:100F100030484D4020380808080808080808382FCD
:100F200010C8ACBA2F102834FA00007B0000081457
:100F30002A142222142A1408AA005500AAAA55AA83
:100F400055AA000000FF00101010FF00141414FF39
:100F5000001010FF00FF1010F010F0141414FC002B
:100F60001414F700FF0000FF00FF1414F404FC1435
:100F70001417101F10101F101F1414141F0010102E
:100F800010F0000000001F101010101F10101010A3
:100F9000F010000000FF101010101010101010FFC3
:100FA00010000000FF140000FF00FF00001F1017DA
:100FB0000000FC04F414141710171414F404F400C3
:100FC00000FF00F714141414141414F700F7141489
:100FD00014171410101F101F141414F4141010F010
:100FE00010F000001F101F0000001F14000000FC84
:100FF000140000F010F01010FF10FF141414FF1470
:101000001010101F00000000F010FFFFFFFFFFF0A6
:10101000F0F0F0F0FFFFFF0000000000FFFF0F0FF7
:101020000F0F0F38444438447C2A2A3E147E0202B3
:101030000606027E027E0263554941633844443C01
:1010400004407E201E2006027E020299A5E7A59993
:101050001C2A492A1C4C7201724C304A4D4D3030CA
:1010600048784830BC625A463D3E494949007E01B5
:1010700001017E2A2A2A2A2A44445F444440514AD4
:10108000444040444A51400000FF0103E080FF001B
:101090000008086B6B083612362436060F090F0657
:1010A000000018180000001010003040FF0101007F
:1010B0001F01011E00191D1712003C3C3C3C0000A2
:1010C00000000000000000250028002B00020102A3
:1010D00004081020408001020408102001020408C6
:1010E000102000000000230026002900040404044E
:1010F00004040404020202020202030303030303C2
:1011000000000000240027002A0000000008000260
:101110000100000304070000000000000000552645
:10112000052111241FBECFEFD8E0DEBFCDBF14E0F4
:10113000A0E0B1E0E8EFFAE502C005900D92AE3410
:10114000B107D9F726E0AEE4B4E001C01D92AF319B
:10115000B207E1F718E0C0E9D8E004C02197FE012A
:101160000E94532BCF38D107C9F70E943C210C9421
:101170006F2D0C940000089508950895089580E05F
:1011800090E008950C94FD2BAF92BF92CF92DF9226
:10119000EF92FF920F931F93CF93DF93EC016B01BC
:1011A000590180917E0490917F04FC015583448312
:1011B0000E94A01780917E0490917F04FC01B78269
:1011C000A6820E94A017809123018823C1F08091FC
:1011D0007E0490917F040E94B51788819981092E21
:1011E000000CAA0BBB0BF8948093FE059093FF05AF
:1011F000A0930006B09301067894109223011092F8
:10120000430584E080934405C6010E94F4140E94C3
:101210004511E616F70634F0601771075CF0798324
:10122000688318C0601771072CF08B01E616F7066B
:101230000CF4870119830883F894012E000C220B0B
:10124000330B0093FE051093FF05209300063093A7
:10125000010678948EE18093430588E280934405EB
:101260006881798188E395E00E94221488819981C0
:101270000A9734F46DEE73E088E395E00E948E1DCA
:10128000888199818436910534F46DEE73E088E3AA
:1012900095E00E948E1D6881798180917E049091F5
:1012A0007F040E94CE17DF91CF911F910F91FF9085
:1012B000EF90DF90CF90BF90AF900C94BA144CE8B1
:1012C00050E060E070E080E699E00E945A1168EC1E
:1012D00070E080E090E00E94041F4CE850E060E085
:1012E00070E080EA9FE00E945A1168EC70E080E0B4
:1012F00090E00E94041F4CE850E060E070E080E65F
:1013000099E00E945A1168EC70E080E090E00E9441
:10131000041F4CE850E060E070E080EA9FE00C942D
:101320005A110DB407FEFDCF08950895CF92DF92B4
:10133000EF92FF920F931F93CF93DF93EB017B010B
:1013400025E1E20EF11C8B016C01C61AD70AC60119
:10135000800F911F0E94D928F80181938F01EE150B
:10136000FF05A9F7CE01DF91CF911F910F91FF905B
:10137000EF90DF90CF900895AF92BF92CF92DF921F
:10138000EF92FF920F931F93CF93DF931F92CDB7EE
:10139000DEB75C017B018B016C0185E1C80ED11CBD
:1013A000F80161918F01C50169830E94D928698183
:1013B000681719F0C5010E94E128FFEFAF1ABF0AB4
:1013C000AC14BD0469F7C7010F90DF91CF911F9155
:1013D0000F91FF90EF90DF90CF90BF90AF90089566
:1013E0008EE00E94E81D21E0892B09F020E0822F89
:1013F0000895CF93DF93EC0160E071E084E6282F3D
:101400002C9FC0012D9F900D11240E949609809160
:10141000000190910101019749F085E1EFEAF2E0C6
:10142000A0E0B1E001900D928A95E1F78091020170
:101430009091030190931E0180931D0180910401FE
:10144000909105019093200180931F012091060146
:10145000309107011216130634F4253031052CF0B3
:1014600024E030E002C021E030E021503109309327
:101470008104209380048091080190910901909348
:101480001A018093190180910A0190910B019093A8
:101490001C0180931B0180910C0190910D01909390
:1014A00058048093570480910E0190910F019093FE
:1014B000160180931501809113019091140190936E
:1014C000220180932101809110019091110190934C
:1014D000180180931701CD2B49F49091120181E0FE
:1014E000892790E09093550480935404DF91CF9125
:1014F00008952F923F924F925F926F927F928F92B8
:101500009F92AF92BF92CF92DF92EF92FF920F9392
:101510001F93CF93DF9340910001509101014090C0
:101520001D0150901E0160901F01709020012091BC
:101530008004309181048090190190901A01A0904C
:101540001B01B0901C012090570430905804A091CA
:101550001501B0911601C0912101D0912201009195
:101560001701109118014130510509F05AC04091FE
:101570000201509103014415550509F052C06091D4
:101580000401709105016615770509F04AC0E090E5
:101590000601F0900701233031050CF04AC06901C3
:1015A000EFEFCE1ADE0AEC14FD0409F03FC04091C3
:1015B0000801509109014815590599F540910A0112
:1015C00050910B014A155B0561F540910C0150915A
:1015D0000D014215530529F540910E0150910F015F
:1015E0004A175B07F1F440911301509114014C1715
:1015F0005D07B9F440911001509111014017510756
:1016000081F461E04091540450915504452B09F058
:1016100060E040911201461304C0181619060CF040
:1016200062C0A201B3012330310544F42F5F3F4F64
:1016300007C0E4E6EE16F10409F4B9CF24E630E081
:10164000DD24D394E0905404F0905504EF2809F081
:10165000D12CEE24E394F12CF0920101E0920001F0
:1016600050930301409302017093050160930401BC
:10167000309307012093060190920901809208019E
:10168000B0920B01A0920A0130920D0120920C0140
:10169000B0930F01A0930E0110931101009310015C
:1016A000D0921201D0931401C093130160E071E055
:1016B00024E6AC01249FC001259F900D1124DF91E9
:1016C000CF911F910F91FF90EF90DF90CF90BF903F
:1016D000AF909F908F907F906F905F904F903F90D2
:1016E0002F900C94BC09DF91CF911F910F91FF9027
:1016F000EF90DF90CF90BF90AF909F908F907F90B2
:101700006F905F904F903F902F9008958F929F928F
:10171000AF92BF92CF92DF92EF92FF920F931F93FF
:10172000CF93DF9300D000D000D0CDB7DEB7182F15
:10173000A0911701B09118012FEF30E00E94612BAA
:1017400024E630E040E050E00E94EF28622F81E87C
:101750000E94A51480918404882361F082E2809322
:1017600043051092440566E773E088E395E00E9424
:101770008E1D3DC082E28093430510924405809106
:1017800082049091830497FF04C010928304109206
:10179000820480918204909183040A9734F46DEE60
:1017A00073E088E395E00E948E1D80912101909165
:1017B00022010A9734F46DEE73E088E395E00E940D
:1017C0008E1D609182047091830488E395E00E94ED
:1017D00022146CE773E088E395E00E948E1D60910F
:1017E00021017091220188E395E00E94221480E09B
:1017F0000E94F01380912301882331F080917C04B2
:1018000090917D040E94B5170E943E1FC090600415
:10181000D0906104E0906204F09063042CE2C20E68
:1018200021E0D21EE11CF11CC616D706E806F90617
:1018300008F085C083E480937C0080917A00806406
:1018400080937A0080917A0086FDFCCF60917800C9
:101850008091790070E0782B072E000C880B990B93
:101860000E94BC272AE037ED43EA50E40E941B287F
:1018700020E030E040E85AE30E941B282CE83EE2DA
:101880004AEB5DE30E94FB2920E030E040E251E4B6
:101890000E941B280E946D2A072E000C880B990BB2
:1018A0000E94BC2720E030E040E251E40E94FB2986
:1018B0004B015C01E0905204F0905304C701880F83
:1018C000991F880F991FDC01AC59BB4F6D012D91F9
:1018D0003D914D915C9160915C0470915D048091AB
:1018E0005E0490915F040E948929F60180829182B2
:1018F000A282B382A50194010E948A2960935C04AC
:1019000070935D0480935E0490935F04FFEFEF1A81
:10191000FF0AF0925304E092520426E0E216F1042A
:1019200024F010925304109252040E943E1F6093C0
:10193000600470936104809362049093630420E0D8
:1019400030E040EC50E460915C0470915D04809163
:101950005E0490915F040E94FB296B017C0120E0F2
:1019600030E040E251E40E941B280E946D2A8091E1
:101970007C0490917D040E94CE17112309F4A8C025
:1019800020E030E040E351E4C701B6010E94B527F2
:1019900087FF25C080904E0490904F04A090500483
:1019A000B090510438EB830E3BE0931EA11CB11C98
:1019B0000E943E1F86169706A806B90680F460E0CE
:1019C00081E00E94111E0E94DB200E943E1F609356
:1019D0004E0470934F04809350049093510426E674
:1019E00036E64EE251E4C701B6010E94B52787FFF3
:1019F00025C080904E0490904F04A0905004B09069
:101A000051048CED880E85E0981EA11CB11C0E942B
:101A10003E1F86169706A806B90680F460E081E0AE
:101A20000E94111E0E94DB200E943E1F60934E0404
:101A300070934F0480935004909351042DEC3CEC30
:101A40004CE251E4C701B6010E94B52787FF25C0CB
:101A500080904E0490904F04A0905004B090510498
:101A6000A8EE8A0EA3E09A1EA11CB11C0E943E1F84
:101A700086169706A806B90680F460E081E00E9409
:101A8000111E0E945F090E943E1F60934E047093D6
:101A90004F04809350049093510423E333E34BE2CB
:101AA00051E4C701B6010E94B52787FF11C060E06D
:101AB00081E00E94111E88EE93E00E94B8130E94FC
:101AC0005F0968EC70E080E090E00E94041FEFCFB7
:101AD00088E38093430587E2809344056EE773E0D3
:101AE00088E395E00E948E1D80915B04882309F4B1
:101AF00087C00E944511009190041091910420919B
:101B0000920430919304DC01CB01800F911FA21F3E
:101B1000B31F8093900490939104A0939204B09388
:101B20009304F8941092FE051092FF05109200069F
:101B300010920106789460919004709191048091C4
:101B40009204909193046B017C0197FF07C0CC2411
:101B5000DD247601C61AD70AE80AF90AB8E0CB16DE
:101B6000D104E104F1047CF128E030E040E050E0F1
:101B70000E94EF288091590490915A04280F391F30
:101B80002C30310514F02BE030E037FF02C020E0AC
:101B900030E030935A04209359041092900410922C
:101BA00091041092920410929304809154049091A5
:101BB0005504892B41F44AE050E060E070E080ED8C
:101BC00097E00E945A11109243051092440560E874
:101BD00073E088E395E00E948E1D88E080934305C2
:101BE0008AE1809344052091590430915A0446E0DB
:101BF000429FC001439F900D112484559A4F53C2B8
:101C0000E0915904F0915A04EC30F10508F054C207
:101C1000EC5CFF4F0C94532BE0901501F0901601F3
:101C2000009157041091580465E873E0CE010196C5
:101C30000E942D1D24E630E040E050E0BE016F5FC1
:101C40007F4F8DE191E0ACC16BE873E0CE0101966E
:101C50000E942D1D44E6E42EF12C00E010E024E665
:101C600030E040E050E0BE016F5F7F4F8FE191E0D8
:101C700097C10E9445110091900410919104209108
:101C8000920430919304DC01CB01800F911FA21FBD
:101C9000B31F8093900490939104A0939204B09307
:101CA0009304F8941092FE051092FF05109200061E
:101CB0001092010678946091900470919104809143
:101CC0009204909193046B017C0197FF07C0CC2490
:101CD000DD247601C61AD70AE80AF90AE4E0CE162E
:101CE000D104E104F1040CF124E030E040E050E0E4
:101CF0000E94EF288091800490918104280F391F61
:101D00002430310514F023E030E037FF02C020E03A
:101D100030E030938104209380041092900410925C
:101D20009104109292041092930416E010934305CC
:101D30008EE0809344056FE873E088E395E00E94AD
:101D40008E1D81E00E94F01382E1809343058AE1B9
:101D5000809344052091800430918104129FC0013A
:101D6000139F900D11248C569A4F9DC10E944511CE
:101D70000091900410919104209192043091930469
:101D8000DC01CB01800F911FA21FB31F8093900431
:101D900090939104A0939204B0939304F8941092BA
:101DA000FE051092FF05109200061092010678942D
:101DB00060919004709191048091920490919304A9
:101DC0006B017C0197FF07C0CC24DD247601C61A85
:101DD000D70AE80AF90AF4E0CF16D104E104F104C5
:101DE0001CF124E030E040E050E00E94EF288091B8
:101DF000210190912201280F391F1216130634F485
:101E0000233331052CF022E330E002C021E030E042
:101E1000309322012093210110929004109291049A
:101E2000109292041092930482E0809343051AE08A
:101E30001093440565E973E088E395E00E948E1DE8
:101E400081E00E94F013109343058AE180934405DA
:101E500080912101909122010A9734F46DEE73E094
:101E600088E395E00E948E1D60912101709122010E
:101E700088E395E00E94221418C1809184048111A6
:101E80001BC16DE973E0CE0101960E942D1D34EF58
:101E9000E32EFF24F39404E610E024EF31E044E65F
:101EA00050E0BE016F5F7F4F89E191E079C0809182
:101EB0008404811101C165EA73E0CE0101960E949C
:101EC0002D1D24EFE22EFF24F39404E610E024EF0E
:101ED00031E044E650E0BE016F5F7F4F8BE191E05F
:101EE0005FC0809184048111E7C0E0901501F090FB
:101EF00016016DEA73E0CE0101960E942D1D00E0EF
:101F000010E024E630E040E050E0BE016F5F7F4F1C
:101F100087E594E045C0809184048111CDC0009193
:101F200057041091580465EB73E0CE0101960E94AE
:101F30002D1D94E6E92EF12C24E630E040E050E03F
:101F4000BE016F5F7F4F85E191E02AC080918404DC
:101F50008111B2C06DEB73E006C0809184048111E1
:101F6000ABC062EC73E0CE0101960E942D1DCE0144
:101F700001960E94FD1416C067EC73E0CE01019635
:101F80000E942D1D84E6E82EF12C00E010E024E6EE
:101F900030E040E050E0BE016F5F7F4F87E191E0AD
:101FA0000E94C408CE0101960E94281D85C00E948F
:101FB0004511C0909004D0909104E0909204F0906C
:101FC0009304DC01CB018C0D9D1DAE1DBF1D8093C4
:101FD000900490939104A0939204B0939304F89486
:101FE0001092FE051092FF05109200061092010655
:101FF00078946091900470919104809192049091F2
:1020000093046B017C0197FF07C0CC24DD2476018B
:10201000C61AD70AE80AF90A24E0C216D104E10474
:10202000F1040CF124E030E040E050E00E94EF28A1
:102030008091540490915504280F391F12161306ED
:1020400014F421E030E037FF02C020E030E03093AC
:10205000550420935404109290041092910410920D
:1020600092041092930416E0109343058EE080933F
:1020700044056FEC73E088E395E00E948E1D81E0DB
:102080000E94F01382E1809343058AE18093440526
:102090002091540430915504129FC001139F900D5C
:1020A000112488579A4F0E94F4140E94BA14109277
:1020B000230180E00E94F01383E10E94E81D892B38
:1020C00009F080C080915604811178C080915B0432
:1020D00081114AC08091590490915A048830910529
:1020E000F1F480918E0490918F0418161906E4F58E
:1020F0000E94F90942E350E060E070E080EA9FE06E
:102100000E945A1164E670E080E090E00E94041F93
:1021100044E650E060E070E080EA9FE01FC009976D
:1021200019F580918E0490918F0418161906E4F425
:102130000E94790A42E350E060E070E080ED97E0B1
:102140000E945A1164E670E080E090E00E94041F53
:1021500044E650E060E070E080ED97E00E945A11A4
:1021600010928F0410928E0480915B0421E08227EC
:1021700080935B0480918404882349F08091590402
:1021800090915A040497069710F420935B0480E81A
:1021900091E0E4E2F1E0DF019C011D92215030402A
:1021A000E1F781E080932301F8941092FE051092EC
:1021B000FF051092000610920106789481E080934A
:1021C000560402C01092560426960FB6F894DEBF4D
:1021D0000FBECDBFDF91CF911F910F91FF90EF9078
:1021E000DF90CF90BF90AF909F908F900895DC01CB
:1021F000ED91FD918081ED91FD919081ED91FD91A9
:102200006C9163708E2309F064609F2309F068600D
:10221000E4E1F1E1E60FF11D659565956D936D9132
:102220007D918D919D91099423C01AC012C016C052
:1022300010C01EC009C014C013C006C019C009C018
:102240000DC007C00DC014C0625070408040904067
:102250000BC0615070408040904006C06E5F01C06E
:102260006F5F7F4F8F4F9F4F9E938E937E936E93A2
:10227000089580916E0590916F050C94F7108091F0
:102280006C0590916D050C94F710809102068230D8
:1022900030F4F89487EF95E00E94F71001C0F894AD
:1022A0006091FE057091FF058091000690910106F6
:1022B000789408953F924F925F926F927F928F929F
:1022C0009F92AF92BF92CF92DF92EF92FF920F93C5
:1022D0001F93CF93DF9300D000D0CDB7DEB720910E
:1022E000A402263021F02F3F09F02CC204C0EDECEF
:1022F000F0E1349076C026E02093A402EDECF0E10A
:10230000E491EF3F09F41EC2E13011F1E23009F42B
:1023100043C0E11165C014BC15BC24B5226024BDC6
:1023200025B5216025BDE2EFF0E1E491F0E0EE0F8C
:10233000FF1FED53FF4E25913491309308062093F3
:102340000706E4EDF0E1E491E0930606312C4BC082
:1023500010928000109281002091810028602093CB
:10236000810020918100216020938100E2EFF0E163
:10237000E491F0E0EE0FFF1FED53FF4E25913491F5
:102380003093050620930406E4EDF0E1E491E09338
:1023900003063324339427C01092B0001092B1008A
:1023A0002091B00022602093B0002091B100216004
:1023B0002093B100E2EFF0E1E491F0E0EE0FFF1FB7
:1023C000ED53FF4E2591349130939604209395045C
:1023D000E4EDF0E1E491E0939404B2E03B2E03C01D
:1023E0003E2E37FCAFC12A013B018C0161E086E043
:1023F0000E94C81E4801A12CB12C832D8D7F09F0AD
:10240000BBC060E072E18AE790E0A50194010E9400
:10241000EF2829833A834B835C8369017A0121E0A9
:10242000C21AD108E108F1088FEFC816D104E104FF
:10243000F10409F008F44CC060E472E48FE090E02D
:10244000A50194010E94EF2869017A01E1E0CE1A0A
:10245000D108E108F108F2E03F1220C02FEFC216C8
:10246000D104E104F10409F008F46AC160E970EDF7
:1024700083E090E0A50194010E94EF2869017A01B0
:1024800081E0C81AD108E108F108EFEFCE16D104B7
:10249000E104F10409F0D0F583E067C0FFEFCF1647
:1024A000D104E104F104B1F0A8F068E478EE81E031
:1024B00090E0A50194010E94EF2869017A0181E072
:1024C000C81AD108E108F108332009F4DFC02FC190
:1024D00081E001C082E03320A1F047C089819A8168
:1024E000AB81BC812AE0B595A795979587952A95EC
:1024F000D1F76C017D0121E0C21AD108E108F10891
:1025000085E095B5987F892B85BD6FC068E478EE2E
:1025100081E090E0A50194010E94EF2869017A0111
:10252000F1E0CF1AD108E108F1082FEFC216D1046B
:10253000E104F10409F008F4A7C064E274EF80E05C
:1025400090E0A50194010E94EF2869017A01E1E081
:10255000CE1AD108E108F108FFEFCF16D104E1044B
:10256000F10411F008F0B4C085E09091B100987FBB
:10257000892B8093B10039C060E072E18AE790E076
:10258000A50194010E94EF2869017A0181E0C81A2F
:10259000D108E108F108C114D104E1E0EE06F1042C
:1025A00088F068E478EE81E090E0A50194010E9453
:1025B000EF2869017A01F1E0CF1AD108E108F108AA
:1025C00093E001C091E021E032120FC080918100C0
:1025D000887F892B80938100411451046104710428
:1025E00049F42FEF3FEFA9012DC0411451046104BC
:1025F000710471F0D801AA0FBB1FA30192010E94C0
:102600000E2928EE33E040E050E00E94582903C034
:102610002FEF3FEFA90181E03816A1F0E2E03E166E
:1026200019F131108FC0C7BC20930D0630930E06F0
:1026300040930F065093100680916E008260809345
:102640006E0080C0D0928900C09288002093090655
:1026500030930A0640930B0650930C0680916F004E
:10266000826080936F006EC0C092B3002093970485
:10267000309398044093990450939A048091700089
:102680008260809370005EC084E06FCFFFEFCF1652
:10269000D104E104F104D1F0C8F062E17AE780E00E
:1026A00090E0A50194010E94EF2869017A0181E080
:1026B000C81AD108E108F108EFEFCE16D104E10401
:1026C000F10411F008F00ACF84E01BCF83E019CFAA
:1026D00062E17AE780E090E0A50194010E94EF2892
:1026E00069017A0181E0C81AD108E108F108EFEF29
:1026F000CE16D104E104F104C1F0B8F089819A81C9
:10270000AB81BC814AE0B595A795979587954A9589
:10271000D1F76C017D0121E0C21AD108E108F1086E
:10272000332009F4EDCE87E020CF86E0D4CEFFEF52
:10273000CF16D104E104F10409F050F684E0CBCEC9
:1027400082E013CF0F900F900F900F90DF91CF91F9
:102750001F910F91FF90EF90DF90CF90BF90AF90BF
:102760009F908F907F906F905F904F903F900895D3
:10277000AC019091F4059C3090F58091F50528E826
:1027800030E0281B310987FD3395220F331F220FBC
:10279000331F4217530784F08091F60528E532E095
:1027A000281B310987FD3395220F331F220F331F5A
:1027B000421753070CF49A0122503109220F331F9C
:1027C0004FB7F894892F90E0FC01EE0FFF1F8E0F9A
:1027D0009F1FFC01E95BFA4F328321834FBF0895AD
:1027E000873008F02DC080934005E82FF0E0EE0F11
:1027F000FF1FE65BFC4F80819181FC0124912093B7
:102800003E053196E491E0933F05FC013296E49158
:10281000E0934105FC013396E491E0934205FC010D
:10282000349624913196E491F0E084E6289FE00DFF
:10283000F11D1124F0934605E093450581E00895CC
:1028400080E008954F925F926F927F928F929F9255
:10285000AF92BF92CF92DF92EF92FF920F931F93AE
:10286000CF93DF93CDB7DEB7A1970FB6F894DEBF55
:102870000FBECDBF8C016B01770FEE08FF08F7FE8E
:102880002FC0DC01ED91FC910190F081E02D6DE213
:1028900009955C0122273327A9012C193D094E090E
:1028A0005F0919A2FE01B1967F019AE0492E512CD1
:1028B000612C712CCA01B901A30192010E9458290F
:1028C000605DD7016E937D012115310541055105EC
:1028D00089F7BD01C8010E94791D8A0D9B1D1EC08C
:1028E000A701960119A2FE01B1967F018AE0882E08
:1028F000912CA12CB12CCA01B901A50194010E940F
:102900005829605DD7016E937D0121153105410580
:10291000510589F7BD01C8010E94791DA1960FB626
:10292000F894DEBF0FBECDBFDF91CF911F910F9105
:10293000FF90EF90DF90CF90BF90AF909F908F90DF
:102940007F906F905F904F900895CF93DF9300D06A
:10295000CDB7DEB76A8389830E94D52089818EBD79
:102960000E9491096A816EBD0F900F90DF91CF9107
:102970000C94CA20CF93DF9360E080E20E94A514FC
:102980000E94D52081E28EBD0E94910980E28EBD19
:102990000E9491098FE58EBD0E94CA200E94D52019
:1029A00082E28EBD0E9491091EBC0E94910985E0C1
:1029B0008EBD0E94CA200E94D520289A209880911E
:1029C00024018EBDC5E2D1E00E94910989918EBD9E
:1029D00082E0C43AD807C1F70E94CA2062E080E2D0
:1029E000DF91CF910C94A514FC0144815581608145
:1029F000718188E395E00C94CF1B0F931F93CF93C5
:102A0000DF93EC010E944511009190041091910414
:102A10002091920430919304DC01CB01800F911F2F
:102A2000A21FB31F8093900490939104A0939204EB
:102A3000B0939304F8941092FE051092FF05109243
:102A400000061092010678946091900470919104B0
:102A500080919204909193048B019C0197FF07C091
:102A6000002711279801061B170B280B390B043080
:102A70001105210531050CF124E030E040E050E083
:102A80000E94EF2880918E0490918F04280F391FA7
:102A90002430310514F023E030E037FF02C020E09D
:102AA00030E030938F0420938E04109290041092A3
:102AB000910410929204109293041AE0109343052B
:102AC0008EE080934405CE010E94F41481E00E94C0
:102AD000F013109343058AE18093440520918E04FE
:102AE00030918F0446E0429FC001439F900D112416
:102AF00080599A4F0E94F4140E94BA141092230134
:102B000080E0DF91CF911F910F910C94F0139F9271
:102B1000AF92BF92CF92DF92EF92FF920F931F93EB
:102B2000CF93DF93C82FD62F142FD02E422F50E0F3
:102B3000461B510957FF03C0519541955109812FFB
:102B400090E08C1B910997FF03C0919581959109A5
:102B5000BB24B3948417950714F0B12C06C0812FC1
:102B6000122F282F8C2FCD2FD82F1C1730F48D2FFC
:102B7000D22F282F8C2FC12F182FA12EAC1A822FC5
:102B800090E08D1B910997FF03C091958195910964
:102B9000F82ECA2CC694D21718F099249A9413C010
:102BA0009924939410C00E2D2D2DBB2079F04C2F1D
:102BB0006D2F88E395E00E94ED17CF18C7FE02C085
:102BC000D90DCA0CCF5FC11770F303C04D2F6C2F06
:102BD000F0CFDF91CF911F910F91FF90EF90DF9099
:102BE000CF90BF90AF909F900895CF92DF92EF92D9
:102BF0000F93CF93DF936C01FC018485C5858230F0
:102C000040F5D281CD0FCE5FDF5FF601DC1770F4A7
:102C1000638128E0260F6B5FE0903D0500913C0545
:102C20004D2F8D2F0E948715DE5FEFCFD281DF5FA2
:102C3000DC17B8F5F601638125E0260F6D5FE090A3
:102C40003D0500913C054D2F8D2F0E948715D65FC5
:102C5000EFCFF601D381CD0FCE5FDF5FF601CD1749
:102C600068F0828143E0480FE0903D0500913C050B
:102C70002D2F6D2F0E948715DE5FF0CFD381DF5F90
:102C8000CD1778F0F601828145E0480FE0903D05D0
:102C900000913C052D2F6D2F8D5F0E948715D65F0B
:102CA000EFCFDF91CF910F91EF90DF90CF9008950C
:102CB0002F923F924F925F926F927F928F929F924C
:102CC000AF92BF92CF92DF92EF92FF920F931F933A
:102CD000CF93DF9300D000D0CDB7DEB71C01FC014D
:102CE000A480B580678570896A197B0980E090E0CF
:102CF0000E94BA276B017C01F101868197818A19B4
:102D00009B09BC0180E090E00E94BA279B01AC01C6
:102D1000C701B6010E94FB2920E030E040E753E400
:102D20000E941B2820E030E046E153E40E948A29FB
:102D300025E33AEF4EE85CE30E941B284B015C015F
:102D40000E94F62969837A838B839C83F1016585D0
:102D500070E080E090E00E94BC272AE939E949E967
:102D60005FE30E94FB296B017C01C501B4010E9455
:102D7000E22A2B013C01F10113813280612F70E0C6
:102D80006F5F7F4F072E000C880B990B0E94BC27AA
:102D90004B015C01A7019601C301B2010E941B28EF
:102DA0009B01AC01C501B4010E948A290E94742ACA
:102DB000762E632D70E06F5F7F4F072E000C880B1F
:102DC000990B0E94BC274B015C01A7019601698108
:102DD0007A818B819C810E941B289B01AC01C501DB
:102DE000B4010E948A290E94742A462FEE24E3949B
:102DF00001E0272D612F832D0E9487150F900F90E2
:102E00000F900F90DF91CF911F910F91FF90EF9056
:102E1000DF90CF90BF90AF909F908F907F906F90FA
:102E20005F904F903F902F9008950F931F93CF93F3
:102E3000DF93EC018B01CB010E94A520CB85C81B41
:102E4000CC2341F06DEE73E088E395E00E948E1D87
:102E5000C150F6CFB80188E395E0DF91CF911F9183
:102E60000F910C942214CF93DF93EC01E881F98148
:102E70000084F185E02D099588859985988B8F8749
:102E8000E881F9810084F185E02DCE0109958E85D8
:102E9000811119C09A819F5F8B85282F220F820F85
:102EA000981B2C858B81222311F0865F01C0855FE2
:102EB00090934305809344056F857889CE01DF9117
:102EC000CF910C941517DF91CF910895CF93DF9395
:102ED000EC01E881F9810084F185E02D0995888570
:102EE0009985988B8F87E881F9810084F185E02DA1
:102EF000CE0109958E85811120C02C858B819A8108
:102F0000213069F038F0223061F42D85820F8C5F1A
:102F10009F5F08C08F5F2D85920F9C5F03C0865F07
:102F200001C0975F90934305809344056F8578892E
:102F3000CE01DF91CF910C941517DF91CF910895B9
:102F40001F93CF93DF93EC018E819F810E94A52078
:102F5000182F8C819D810E94A520811708F4812F54
:102F60008B87DF91CF911F910895CF93DF93EC0171
:102F7000E881F9810280F381E02D0995E881F981EA
:102F80000084F185E02DCE010995E881F981019059
:102F9000F081E02DCE01DF91CF910994CF93DF93A3
:102FA000EC018E819F8186179707A4F08C819D810B
:102FB000681779077CF0CB01798768870E94A52084
:102FC0008A87E881F9810190F081E02DCE01DF91BF
:102FD000CF910994DF91CF9108950F936034C8F594
:102FE0004033B8F50130C1F4213099F5E42FE6956E
:102FF000E695E69580E4E89FF0011124E60FF11DC7
:10300000EC5DFE4F477081E090E001C0880F4A956B
:10301000EAF7908189271CC0842F8695869586952E
:10302000E62FF0E0477090E4899FE00DF11D112438
:10303000EC5DFE4F81E090E001C0880F4A95EAF711
:10304000213019F49081892B03C0809590818923C8
:1030500080830F9108952F923F924F925F926F92CB
:103060007F928F929F92AF92BF92CF92DF92EF9218
:10307000FF920F931F93CF93DF93CDB7DEB72F97B8
:103080000FB6F894DEBF0FBECDBF1C01FC019585C5
:1030900093808280B0903D05A0903C0581E0F82EA1
:1030A000F91AE92EE194EE0C192F492D490F0B2D39
:1030B0002A2D682D88E395E00E94ED17492D411BCC
:1030C0002A2D682D88E395E00E94ED17682D610F89
:1030D0002A2D492D88E395E00E94ED17682D611B8C
:1030E0002A2D492D88E395E00E94ED17612C611689
:1030F0000CF055C0F7FC04C01150E394E394FE0CAF
:103100006394862D880F8F5FF80E762C780C0B2D2C
:103110002A2DD12ED90C4D2D672D88E395E00E94E4
:10312000ED17C82CC6182A2D4D2D6C2D88E395E07F
:103130000E94ED172A2DD92CD11A4D2D672D88E329
:1031400095E00E94ED172A2D4D2D6C2D88E395E01A
:103150000E94ED17D62CD90C2A2D4D2DC12EC80C4E
:103160006C2D88E395E00E94ED172A2D4D2DD82C6B
:10317000D11A6D2D88E395E00E94ED17792C761811
:103180002A2D472D6C2D88E395E00E94ED172A2DFE
:10319000472D6D2D88E395E00E94ED17A8CF26E915
:1031A00030E03F872E87EE85FF85BF01FF0F880B3C
:1031B000990B0E94BC2725E33AEF4EE85CE30E949E
:1031C0001B284B015C010E94F62969837A838B835B
:1031D0009C83F101658570E080E090E00E94BC274F
:1031E0006B017C0120E030E040EC5FE30E94FB29B2
:1031F00069877A878B879C87C501B4010E94E22A80
:103200002B013C01F101638170E06F5F7F4F072E5E
:10321000000C880B990B0E94BC274B015C01F1014B
:10322000628170E06F5F7F4F072E000C880B990B57
:103230000E94BC276D837E838F839887A7019601A8
:10324000C301B2010E941B289B01AC01C501B4015E
:103250000E948A290E94742A6D87A70196016981BC
:103260007A818B819C810E941B289B01AC016D811E
:103270007E818F8198850E948A290E94742A162F48
:1032800029853A854B855C85C301B2010E941B28C4
:103290009B01AC01C501B4010E948A290E94742AD5
:1032A000B62E29853A854B855C8569817A818B812B
:1032B0009C810E941B289B01AC016D817E818F81C6
:1032C00098850E948A290E94742A862FE0903D05E5
:1032D00000913C052D85412F6B2D0E9487152E8571
:1032E0003F85225E3F4F3F872E87243A314009F0C9
:1032F0005ACFF1018585803108F4AAC025EA30E073
:103300003F872E87EE85FF85BF01FF0F880B990B46
:103310000E94BC2725E33AEF4EE85CE30E941B289D
:103320004B015C010E94F62969837A838B839C831D
:10333000F101658570E080E090E00E94BC276B01A0
:103340007C0126E636E646EA5FE30E94FB296987B0
:103350007A878B879C87C501B4010E94E22A2B01E2
:103360003C01F101638170E06F5F7F4F072E000C1D
:10337000880B990B0E94BC274B015C01F101628113
:1033800070E06F5F7F4F072E000C880B990B0E9437
:10339000BC276D837E838F839887A7019601C30125
:1033A000B2010E941B289B01AC01C501B4010E941F
:1033B0008A290E94742A162FA701960169817A81B1
:1033C0008B819C810E941B289B01AC016D817E81B9
:1033D0008F8198850E948A290E94742AF62E298559
:1033E0003A854B855C85C301B2010E941B289B0175
:1033F000AC01C501B4010E948A290E94742AB62E2C
:1034000029853A854B855C8569817A818B819C8190
:103410000E941B289B01AC016D817E818F81988564
:103420000E948A290E94742A862FE0903D0500910F
:103430003C05212F4F2D6B2D0E9487152E853F8532
:10344000225E3F4F3F872E872539314009F05ACF02
:103450002F960FB6F894DEBF0FBECDBFDF91CF9190
:103460001F910F91FF90EF90DF90CF90BF90AF90A2
:103470009F908F907F906F905F904F903F902F9094
:1034800008957F928F929F92AF92BF92CF92DF92D8
:10349000EF92FF920F931F93CF93DF93EC018C85F4
:1034A000CC80DD806F857889EE80FF800D857B8004
:1034B0001A818230B8F56C197D0980E090E00E9495
:1034C000BA274B015C01B7016C197D0980E090E0DF
:1034D0000E94BA279B01AC01C501B4010E94FB29DF
:1034E0006B017C01602F70E080E090E00E94BC27BF
:1034F0009B01AC01C701B6010E941B280E94742ADF
:10350000F62E862F810F43E0480FEE24E39401E06E
:10351000272D672D0E9487154B814F5F6A816F5F52
:103520006F0D39C0C701861B970BBC0180E090E08E
:103530000E94BA274B015C01C7018C199D09BC018F
:1035400080E090E00E94BA279B01AC01C501B40164
:103550000E94FB296B017C01602F70E080E090E00D
:103560000E94BC279B01AC01C701B6010E941B2829
:103570000E94742AF62E670D87E0810F23E0260F44
:10358000EE24E39401E0482F0E9487154B814F5FA2
:103590004F0D6A816A5F21E088E395E00E94ED1794
:1035A000DF91CF911F910F91FF90EF90DF90CF901F
:1035B000BF90AF909F908F907F9008955F926F9291
:1035C0007F928F929F92AF92BF92CF92DF92EF92B3
:1035D000FF920F931F93CF93DF93EC016A3009F4AE
:1035E0006AC06D3009F4C9C0E62EBD80AC801C8570
:1035F0009B842985621708F450C08A8590E0820F69
:10360000911D462F50E0481759070CF046C0E21AAA
:103610008F8086948694869481E0881508F451C042
:10362000C92C38E0D32ED10E9C2D99198E81282FCC
:1036300030E0E92FF0E02E173F077CF1981789F072
:10364000A885B0E0AA0FBB1FA65BBC4FE89EE00DAB
:10365000F11D112436968D919C91E80FF91FF4907D
:1036600001C0F12C812EF0FE03C00B2D2A2D04C0C9
:1036700021E0A11020E00B2D482D6C2DCE010E94E1
:10368000ED17F69483948D10EECFC394CDCF8FEFCA
:10369000C81AD80A185FC814D0F14E818B85840FE0
:1036A0008F5F8B8790E020E430E0241B31092817DE
:1036B00039070CF062C09C858F81890F8C871B862F
:1036C0005CC0ED85FE852E8130E0CF01B9010E94FE
:1036D0003F2B8E2D90E00E943F2B829F7001839F95
:1036E000F00C929FF00C11248E9E90018F9E300D55
:1036F0001124269FC001279F900D369F900D112405
:10370000E80EF91EC12CD12C86E0E80EF11C792CB4
:10371000872D89199E81891708F0B9CFA885B0E057
:10372000AA0FBB1FA65BBC4F2D853E85C29EF00134
:10373000C39EF00DD29EF00D1124EE0DFF1DE80F7B
:10374000F11D8D919C91E80FF91F6490512C452D2E
:10375000410F60FE03C00B2D2A2D04C021E0A110F3
:1037600020E00B2D672DCE010E94ED176694539437
:1037700088E05812ECCF7394CBCF81E090E0DF91DA
:10378000CF911F910F91FF90EF90DF90CF90BF905E
:10379000AF909F908F907F906F905F900895CF92A1
:1037A000DF92EF92FF920F931F93CF93DF936C0101
:1037B0007A018B01C0E0D0E0CE15DF0589F0D80199
:1037C0006D918D01D601ED91FC910190F081E02D7C
:1037D000C6010995892B11F47E0102C02196ECCF18
:1037E000C701DF91CF911F910F91FF90EF90DF9074
:1037F000CF900895FC01538D448D252F30E0842F08
:1038000090E0821B930B541710F0CF960895019708
:103810000895FC01918D828D981761F0828DDF01F2
:10382000A80FB11D5D968C91928D9F5F9F73928FB3
:1038300090E008958FEF9FEF0895FC01918D828DA8
:10384000981731F0828DE80FF11D858D90E0089575
:103850008FEF9FEF0895FC01918D228D892F90E0CD
:10386000805C9F4F821B91098F73992708958BE984
:1038700094E00E942B1C21E0892B09F420E0822F88
:103880000895FC01848DDF01A80FB11DA35ABF4F1D
:103890002C91848D90E001968F739927848FA6894F
:1038A000B7892C93A089B1898C9180648C93938D76
:1038B000848D981306C00288F389E02D80818F7D66
:1038C00080830895EF92FF920F931F93CF93DF931E
:1038D000EC0181E0888F9B8D8C8D981305C0E88961
:1038E000F989808185FD24C0F62E0B8D10E00F5FD5
:1038F0001F4F0F731127E02E8C8DE8120CC00FB6EE
:1039000007FCFACFE889F989808185FFF5CFCE01E0
:103910000E94411CF1CF8B8DFE01E80FF11DE35A8F
:10392000FF4FF0820B8FEA89FB898081806207C09C
:10393000EE89FF896083E889F989808180648083CA
:1039400081E090E0DF91CF911F910F91FF90EF9078
:103950000895CF93DF93EC01888D8823C9F0EA891D
:10396000FB89808185FD05C0A889B9898C9186FD78
:103970000FC00FB607FCF5CF808185FFF2CFA88975
:10398000B9898C9185FFEDCFCE010E94411CE7CF14
:10399000DF91CF91089580E090E0892B29F00E947B
:1039A000371C81110C9400000895833081F028F4B5
:1039B000813099F08230A1F008958730A9F08830E5
:1039C000B9F08430D1F4809180008F7D03C0809164
:1039D00080008F7780938000089584B58F7702C030
:1039E00084B58F7D84BD08958091B0008F7703C02A
:1039F0008091B0008F7D8093B00008953FB7F89418
:103A00008091170690911806A0911906B0911A0698
:103A100026B5A89B05C02F3F19F00196A11DB11D29
:103A20003FBFBA2FA92F982F8827820F911DA11D64
:103A3000B11DBC01CD0142E0660F771F881F991FA1
:103A40004A95D1F7089508950C94FD2B0C94FD2B05
:103A5000FC01808191810C94FD2BEF92FF920F93DA
:103A60001F93CF93DF93EC01198218821B821A8275
:103A70001D821C8261157105A9F17B01FB0101907A
:103A80000020E9F731978F01061B170BB8016F5F14
:103A90007F4F80E090E00E94952C009759F0998329
:103AA00088831B830A832C813D81232B81F4FC01B5
:103AB00010820DC088819981009711F00E94FD2B22
:103AC000198218821D821C821B821A820BC01D83E0
:103AD0000C83B701DF91CF911F910F91FF90EF9071
:103AE0000C94682DDF91CF911F910F91FF90EF9073
:103AF00008956115710579F0FB0101900020E9F747
:103B00003197AF01461B570BDC01ED91FC91028010
:103B1000F381E02D099480E090E008950C94791DE4
:103B20001F920F920FB60F9211242F933F934F9332
:103B30005F936F937F938F939F93AF93BF93EF9315
:103B4000FF938BE994E00E94411CFF91EF91BF919C
:103B5000AF919F918F917F916F915F914F913F9125
:103B60002F910F900FBE0F901F9018951F920F92DC
:103B70000FB60F9211242F938F939F93EF93FF9380
:103B8000E091AB04F091AC048081E091B104F0913C
:103B9000B20482FD12C090818091B4048F5F8F7354
:103BA0002091B504821751F0E091B404F0E0E5569D
:103BB000FB4F958F8093B40401C08081FF91EF91FA
:103BC0009F918F912F910F900FBE0F901F9018957E
:103BD000CF93DF93282F30E0F901E65FFE4E84910A
:103BE000F901E253FF4ED491F901E451FF4EC49123
:103BF000CC2391F081110E94D51CEC2FF0E0EE0F48
:103C0000FF1FEE51FF4EA591B491EC91ED2381E0A1
:103C100090E021F480E002C080E090E0DF91CF915D
:103C200008951F93CF93DF93282F30E0F901E65FCB
:103C3000FE4E8491F901E253FF4ED491F901E45113
:103C4000FF4EC491CC23C9F0162F81110E94D51CC0
:103C5000EC2FF0E0EE0FFF1FED53FF4EA591B49156
:103C60008FB7F894111105C09C91ED2FE095E923D1
:103C700002C0EC91ED2BEC938FBFDF91CF911F91A0
:103C800008959091A402981324C0EDECF0E1E49122
:103C90009FEF9093A402E130B9F098F0E230C9F4BC
:103CA000909170009D7F9093700091E09093B00090
:103CB0009091B100987F94609093B1001092B300FE
:103CC00008C010926E0005C090916F009D7F909388
:103CD0006F0060E00C94111E1F920F920FB60F92AE
:103CE00011242F933F934F935F936F937F938F9301
:103CF0009F93AF93BF93EF93FF938091970490911D
:103D00009804A0919904B0919A04892B8A2B8B2B4B
:103D100051F180919404E0919504F0919604908182
:103D2000892780838091970490919804A0919904A9
:103D3000B0919A04181619061A061B06C4F480914D
:103D4000970490919804A0919904B0919A040197D6
:103D5000A109B1098093970490939804A0939904C2
:103D6000B0939A0404C08091A4020E94411EFF9166
:103D7000EF91BF91AF919F918F917F916F915F91E3
:103D80004F913F912F910F900FBE0F901F9018955C
:103D9000CF93DF9390E0FC01E253FF4E2491FC01AE
:103DA000E451FF4E8491882361F190E0880F991FC0
:103DB000FC01E050FF4EC591D491FC01ED53FF4E44
:103DC000A591B491611109C09FB7F894888120959D
:103DD00082238883EC912E230BC0623061F49FB75D
:103DE000F8943881822F809583238883EC912E2B41
:103DF0002C939FBF06C08FB7F894E8812E2B2883A1
:103E00008FBFDF91CF9108958F929F92AF92BF9213
:103E1000CF92DF92EF92FF926B017C010E94FE1C19
:103E20004B015C01C114D104E104F104F1F00E94E2
:103E3000FE1CDC01CB0188199909AA09BB09883E3F
:103E40009340A105B10570F321E0C21AD108E10841
:103E5000F10888EE880E83E0981EA11CB11CC114E5
:103E6000D104E104F10419F7DDCFFF90EF90DF906A
:103E7000CF90BF90AF909F908F9008952FB7F894F8
:103E800060911306709114068091150690911606A4
:103E90002FBF08951F920F920FB60F9211242F93E8
:103EA0003F938F939F93AF93BF938091130690910D
:103EB0001406A0911506B09116063091120623E063
:103EC000230F2D3720F40196A11DB11D05C026E852
:103ED000230F0296A11DB11D209312068093130695
:103EE00090931406A0931506B093160680911706BA
:103EF00090911806A0911906B0911A060196A11D7D
:103F0000B11D8093170690931806A0931906B093DD
:103F10001A06BF91AF919F918F913F912F910F9072
:103F20000FBE0F901F9018951F920F920FB60F9211
:103F300011242F933F934F935F936F937F938F93AE
:103F40009F93AF93BF93EF93FF93E091A702F091FC
:103F5000A8020995FF91EF91BF91AF919F918F9129
:103F60007F916F915F914F913F912F910F900FBE75
:103F70000F901F9018951F920F920FB60F92112459
:103F80002F933F934F935F936F937F938F939F9361
:103F9000AF93BF93EF93FF93E091A502F091A60238
:103FA0000995FF91EF91BF91AF919F918F917F9173
:103FB0006F915F914F913F912F910F900FBE0F9096
:103FC0001F9018951F920F920FB60F9211242F93E6
:103FD0003F934F935F936F937F938F939F93AF9391
:103FE000BF93EF93FF938091110687FF05C0109256
:103FF0008500109284001BC020911106022E000C37
:10400000330B80916B0590E02817390784F4809179
:104010001106082E000C990BFC01EE0FFF1F8E0FEE
:104020009F1FFC01E95BFA4F808186FD15C08091DE
:1040300011068F5F8093110620911106022E000C4D
:10404000330B80916B0590E028173907C4F48091F9
:1040500011068C3064F113C080911106082E000CFB
:10406000990BFC01EE0FFF1F8E0F9F1FFC01E95BF8
:10407000FA4F808160E08F730E94111ED8CF80912B
:10408000840090918500049680349C4918F480E463
:104090009CE905C0809184009091850004969093DE
:1040A0008900809388008FEF809311063BC0209198
:1040B00084003091850080911106082E000C990B28
:1040C000FC01EE0FFF1F8E0F9F1FFC01E95BFA4FF3
:1040D00081819281820F931F909389008093880041
:1040E00080911106082E000C990BFC01EE0FFF1FAA
:1040F0008E0F9F1FFC01E95BFA4F808186FF12C083
:1041000080911106082E000C990BFC01EE0FFF1F89
:104110008E0F9F1FFC01E95BFA4F808161E08F7376
:104120000E94111EFF91EF91BF91AF919F918F91CE
:104130007F916F915F914F913F912F910F900FBEA3
:104140000F901F901895089508959C01803167E2A3
:104150009607E4F4813F78ED9707D4F097FF05C008
:1041600031952195310992E001C091E04AE050E09B
:104170008AE02417350744F09F5FBA01869FA001AB
:10418000879F500D1124F5CF892F089585E008955C
:1041900086E008950DB407FEFDCF2898209A2A9A4C
:1041A00022988CB58F7B8CBD08958CB580648CBDB6
:1041B0002A98229A089540E050E0BA0180E699E0FA
:1041C0000E945A116CE870E080E090E00E94041FA9
:1041D00040E050E0BA0180EA9FE00E945A116CE88A
:1041E00070E080E090E00E94041F40E050E0BA01DF
:1041F00080EB94E00E945A1168EC70E080E090E05F
:104200000E94041F86E00C94411ECF93DF9382E846
:1042100095E00E94281D8CE795E00E94281D86E706
:1042200095E00E94281D80E795E00E94281D8EE8F9
:1042300095E00E94281D88E895E00E94281D86EAE6
:1042400095E00E94281D80EA95E00E94281D8AE9D9
:1042500095E00E94281D84E995E00E94281DC4EF86
:10426000D5E02697CE010E94281D85E0CC3AD807DC
:10427000C1F7DF91CF910895CF93DF93CDB7DEB72C
:1042800069970FB6F894DEBF0FBECDBF789484B5A2
:10429000826084BD84B5816084BD85B5826085BD42
:1042A00085B5816085BD80916E00816080936E00D0
:1042B00010928100809181008260809381008091C2
:1042C0008100816080938100809180008160809373
:1042D00080008091B10084608093B1008091B00033
:1042E00081608093B00080917A00846080937A002E
:1042F00080917A00826080937A0080917A00816058
:1043000080937A0080917A00806880937A0010927E
:10431000C1008091F4058C3008F051C061E085E067
:104320000E94C81E8091F405E82FF0E09F01220F43
:10433000331FE20FF31FE95BFA4F9081907C956089
:1043400090831092F5051092F6056CE00E94332BD5
:104350002CE0829FB001112440E050E09A01260F2A
:10436000371FF901EE0FFF1F2E0F3F1FF901E95B09
:10437000FA4F908196FD16C04F5F5F4F4C3051054C
:1043800069F781110FC01092800082E08093810054
:104390001092850010928400B19A80916F00826023
:1043A00080936F00E091F405F0E0CF01880F991F32
:1043B000E80FF91FE95BFA4F80818064808388EE03
:1043C00093E00E94B81380E00E94F01381E0809394
:1043D0003C0510923D0510924305109244055F98EC
:1043E000579A61E084E00E94C81E61E084E00E9468
:1043F000111E6AE070E080E090E00E94041F5F9A66
:10440000579865E070E080E090E00E94041F5F989C
:10441000579A8CB58C7F8CBD8DB581608DBD2A9AE5
:1044200022982898209A60E08DE00E94111E60E09A
:104430008BE00E94111E61E08DE00E94C81E61E0C9
:104440008BE00E94C81E8CB580618CBD65E070E079
:1044500080E090E00E94041F5F9A57986AE070E045
:1044600080E090E00E94041F6FE288EA0E94A51499
:1044700064E18DE80E94A5140E94D52081EA8EBDDA
:104480000E94CA200E94D52088EC8EBD0E94CA20BE
:104490006FE881E80E94A51461EF89ED0E94A514E0
:1044A00060E48BED0E94A5140E94D5208FEA8EBD9A
:1044B0000E94CA2060E080E20E94A5140E94D520DC
:1044C00081E28EBD0E9491091EBC0E9491098FE776
:1044D0008EBD0E94CA200E94D52082E28EBD0E941D
:1044E00091091EBC0E94910987E08EBD0E94CA20DE
:1044F0000E94D520289A20981EBC0FEF13E00E943E
:1045000091091EBC01501109D1F70E94CA2062E036
:1045100080E20E94A51404E211E030E8C32EDD24FD
:10452000D394D801F6011D923197E9F70E94BA148D
:1045300060E081E10E94C81E62E083E10E94C81E23
:1045400062E082E10E94C81E62E08EE00E94C81E06
:1045500062E08FE00E94C81E62E080E10E94C81EF7
:1045600061E081E00E94C81E61E080E00E94C81EF8
:1045700061E086E00E94C81E81E00E94F01386E0A0
:10458000809343054EE0E42EE092440568E374E036
:1045900088E395E00E948E1D0E94BA1462E370E0E9
:1045A00080E090E00E94041F65ED73E088E395E0F1
:1045B0000E948E1D0E94BA1462E370E080E090E0D9
:1045C0000E94041F67ED73E088E395E00E948E1D52
:1045D0000E94BA1462E370E080E090E00E94041F41
:1045E00069ED73E088E395E00E948E1D0E94BA1485
:1045F00062E370E080E090E00E94041F6BED73E0E6
:1046000088E395E00E948E1D0E94BA1462E370E078
:1046100080E090E00E94041F6DED73E088E395E078
:104620000E948E1D0E94BA1460E971E080E090E063
:104630000E94041F80E00E94F01368EC70E080E0AC
:1046400090E00E94041FD801F6011D923197E9F70E
:104650000E94BA1481E190E00E94682B8C0156ED13
:10466000C52E52E0D52EDC011196DC92CE9280E16F
:1046700012968C9312978EE113968C93139715963E
:104680001C921E92149784E690E017969C938E934A
:10469000169719961C921E92189780E090E00E943F
:1046A000A520F8018287C8010E94A01788EC92E03B
:1046B000D80111969C938E9318968D919C91199781
:1046C00050969C938E931F97FF24F3941E96FC9212
:1046D0001E971C961C921C978FE01D968C93C80108
:1046E0000E942B18C8010E945816C8010E94331757
:1046F00010937F0400937E0481E190E00E94682B78
:104700008C01FC01D182C08288E38283E3828DE642
:1047100090E0958384832EE730E03783268391876A
:1047200080870E94A520D8011A968C93C8010E9408
:10473000A01784EE92E0F8019183808380859185B3
:10474000908B8787F68682E0848784E18587C8011D
:104750000E94F515C8010E94411AC8010E946617FF
:1047600010937D0400937C0480917E0490917F04DB
:104770000E94B51780917C0490917D040E94B5172A
:104780006EEEE62E62E0F62E00E010E075E1D72E28
:10479000BE016F5F7F4FC8010E94960989819A818F
:1047A000019671F4F701DE0111968D2D01900D92A5
:1047B0008A95E1F7BE016F5F7F4FC8010E94BC0977
:1047C0000C591F4F25E1E20EF11C003931E01307AF
:1047D000F9F680E090E00E94F90980E090E0A0E422
:1047E000B1E48093640490936504A0936604B0934D
:1047F00067048093680490936904A0936A04B0935B
:104800006B0480936C0490936D04A0936E04B0933A
:104810006F048093700490937104A0937204B0931A
:1048200073048093740490937504A0937604B093FA
:1048300077048093780490937904A0937A04B093DA
:104840007B040E943E1F6093600470936104809318
:1048500062049093630480E090E0A0E9B2E4809366
:104860005C0490935D04A0935E04B0935F0481E0C8
:104870000E94860B6EE571E080E090E00E94041FCC
:104880004EE551E060E070E080ED97E00E945A1143
:1048900082E10E94E81D892BF9F464EF71E080E069
:1048A00090E00E94041F48EC50E060E070E088EB6C
:1048B0009BE00E945A116CE271E080E090E00E945F
:1048C000041F48EC50E060E070E088EB9BE00E9441
:1048D0005A1181E08093840484E6882E912CA12CC7
:1048E000B12C9BE1E92E93E0F92E2BEC222E27E050
:1048F000322E0E94F009882309F46DC00E943E1FE9
:10490000A0911D01B0911E012FE332E00E94612BA6
:10491000A50194010E94EF28DA01C9018B5F9A4F2B
:10492000AF4FBF4F0E94B8134090190150901A0129
:10493000052C000C66087708A0911D01B0911E019E
:1049400020911B0130911C01A901330F660B770BDD
:104950009A01AB0124193509460957090E94192902
:10496000A50194010E94EF28DA01C901840D951D6B
:10497000A61DB71D8E8B9F8BA88FB98F4090850485
:10498000509086046090870470908804411451040C
:104990006104710479F10E943E1FDC01CB0184198E
:1049A0009509A609B709883E9340A105B10510F500
:1049B00020911D0130911E01ABEFBFEF0E94592BDA
:1049C000A50194010E94EF28CA01B901615F7F4FE0
:1049D0008F4F9F4F15C088EE93E00E94B81382E17D
:1049E0000E94E81D892B09F04EC180918404811139
:1049F0004AC11AC12E893F89B901330F880B990B1F
:104A00000E94041F0091800410918104033011055D
:104A10001CF40F5F1F4F48C004E610E045C03FEF95
:104A2000C31AD30A83E3C816D10479F061E081E0A8
:104A30000E94111E66E070E080E090E00E94041F7A
:104A40008FE00E94E81D892B51F32E893F89263083
:104A50003105C4F060E081E00E94111EC70101979A
:104A6000F1F761E080E00E94111EB201550C880B45
:104A7000990B0E94041F60E080E00E94111EC70194
:104A80000197F1F7015011098091820490918304FC
:104A9000019797FF02C080E090E090938304809399
:104AA000820480E00E94860B0230110524F00E94EF
:104AB000F009811118C000E010E08FE00E94E81DAD
:104AC000019709F041C00F5F1F4F03331105E1F15A
:104AD00061E081E00E94111E65E070E080E090E0FE
:104AE0000E94041FEACF20911F0130912001ACE900
:104AF000BFEF0E94592BA50194010E94EF282901C4
:104B00003A0184E6480E511C611C711C5F8A4E8A72
:104B1000C12CD12C8FE00E94E81D019791F4FFEF8A
:104B2000CF1ADF0A23E3C216D10459F061E081E015
:104B30000E94111E66E070E080E090E00E94041F79
:104B4000E9CFC12CD12C7CCF60E081E00E94111E06
:104B5000C1010197F1F761E080E00E94111E6EE152
:104B600070E080E090E00E94041F60E080E00E941E
:104B7000111EC1010197F1F761E081E00E94111E51
:104B80008BEF99EF0197F1F760E081E00E94111E31
:104B900000E010E080E10E94E81D019751F4083E1A
:104BA00093E0190731F0C7010197F1F70F5F1F4F2D
:104BB000F1CF60E081E00E94111E88EE93E00E9438
:104BC000B813C7010197F1F761E080E00E94111E60
:104BD0006EE170E080E090E00E94041F60E080E001
:104BE0000E94111EC7010197F1F7809182049091F4
:104BF0008304019797FF02C080E090E090938304C4
:104C00008093820480E00E94860B0E94F00981114B
:104C1000FCCF0E943E1F60938504709386048093AE
:104C2000870490938804DBCE80918D04811108C0A5
:104C300080912101909122019093830480938204BA
:104C400081E080938D0481E00E94860B409089046E
:104C500050908A0460908B0470908C04411451042D
:104C60006104710499F00E943E1FDC01CB0184199C
:104C70009509A609B709883E9340A105B10530F40E
:104C80000E94CB1C36CE10928D04DDCF80E090E0E8
:104C90000E94790A0E943E1F6093890470938A04DF
:104CA00080938B0490938C04EBCFCF93DF9310927F
:104CB0009E0410929D0488EE93E0A0E0B0E0809303
:104CC0009F049093A004A093A104B093A2048CE548
:104CD00093E090939C0480939B0485EC90E09093E8
:104CE000A8048093A70484EC90E09093AA04809396
:104CF000A90480EC90E09093AC048093AB0481EC29
:104D000090E09093AE048093AD0482EC90E0909399
:104D1000B0048093AF0486EC90E09093B20480934B
:104D2000B1041092B4041092B5041092B60410921B
:104D3000B70410923B0510923A058EE693E09093EB
:104D400039058093380562E082E00E94C81E62E067
:104D500083E00E94C81EEEEEF0E1E491F0E0EE0F79
:104D6000FF1FEE51FF4EA591B491B093F805A093AB
:104D7000F705E0EDF0E184918093FB05EFEEF0E1C3
:104D8000E491F0E0EE0FFF1FEE51FF4EC591D4917C
:104D9000D093FA05C093F905E1EDF0E1E491E093D9
:104DA000FC051092FE051092FF051092000610926D
:104DB0000106EBE3FFE13197F1F7EC91E82381E0A5
:104DC00009F480E028819091FC05922309F082602B
:104DD00027EF35E08093FD0530936D0520936C053A
:104DE0008FE391E19093A6028093A50280916900E0
:104DF0008C7F816080936900E89A81E0809302064D
:104E000030936F0520936E0589E391E19093A8029A
:104E10008093A70280916900837F846080936900FA
:104E2000E99A82E08093020680916B058C30A0F4B1
:104E300091E0980F90936B058093F40590E0FC014E
:104E4000EE0FFF1F8E0F9F1FFC01E95BFA4F88EBEF
:104E50009BE09283818303C08FEF8093F4056FED15
:104E600073E08CEA95E00E942D1D67EE73E082EB03
:104E700095E00E942D1D6FEE73E088EB95E00E9497
:104E80002D1D65E973E08EEB95E00E942D1D67EF07
:104E900073E084EC95E00E942D1D6FEF73E08AECC7
:104EA00095E00E942D1D67E074E080ED95E00E9482
:104EB0002D1D6FE074E086ED95E00E942D1D67E1E9
:104EC00074E08CED95E00E942D1D6FE174E082EEA0
:104ED00095E00E942D1D67EC73E088EE95E00E943E
:104EE0002D1D67E274E08EEE95E00E942D1D6EE2AE
:104EF00074E084E995E00E942D1D6BED73E08AE972
:104F000095E00E942D1D60E374E080EA95E00E9428
:104F10002D1D68E374E086EA95E00E942D1D62E392
:104F200074E088E895E00E942D1D66E374E08EE849
:104F300095E00E942D1D6AE374E080E795E00E94F1
:104F40002D1D6FE374E086E795E00E942D1D64E45B
:104F500074E08CE795E00E942D1D69E474E082E81E
:104F600095E0DF91CF910C942D1D0E94F72708F456
:104F700081E00895E89409C097FB3EF490958095F0
:104F8000709561957F4F8F4F9F4F9923A9F0F92F0F
:104F900096E9BB279395F695879577956795B7958D
:104FA000F111F8CFFAF4BB0F11F460FF1BC06F5F73
:104FB0007F4F8F4F9F4F16C0882311F096E911C085
:104FC000772321F09EE8872F762F05C0662371F0A6
:104FD00096E8862F70E060E02AF09A95660F771FBA
:104FE000881FDAF7880F9695879597F90895990F96
:104FF0000008550FAA0BE0E8FEEF16161706E807A3
:10500000F907C0F012161306E407F50798F0621BC3
:10501000730B840B950B39F40A2661F0232B242B98
:10502000252B21F408950A2609F4A140A6958FEFB7
:10503000811D811D08950E942E280C949F280E9496
:10504000912838F00E94982820F0952311F00C94B4
:1050500088280C948E2811240C94D3280E94B02800
:1050600070F3959FC1F3950F50E0551F629FF001BB
:10507000729FBB27F00DB11D639FAA27F00DB11DD4
:10508000AA1F649F6627B00DA11D661F829F22275D
:10509000B00DA11D621F739FB00DA11D621F839FE4
:1050A000A00D611D221F749F3327A00D611D231FBA
:1050B000849F600D211D822F762F6A2F11249F5708
:1050C00050409AF0F1F088234AF0EE0FFF1FBB1F0B
:1050D000661F771F881F91505040A9F79E3F5105CA
:1050E00080F00C9488280C94D3285F3FE4F3983E1A
:1050F000D4F3869577956795B795F795E7959F5F74
:10510000C1F7FE2B880F911D9695879597F9089505
:1051100097F99F6780E870E060E008959FEF80EC6A
:10512000089500240A94161617061806090608950D
:1051300000240A9412161306140605060895092E73
:105140000394000C11F4882352F0BB0F40F4BF2BE2
:1051500011F460FF04C06F5F7F4F8F4F9F4F089522
:1051600057FD9058440F551F59F05F3F71F0479518
:10517000880F97FB991F61F09F3F79F087950895FD
:10518000121613061406551FF2CF4695F1DF08C01C
:10519000161617061806991FF1CF86957105610539
:1051A00008940895E894BB2766277727CB0197F9E1
:1051B0000895F999FECF92BD81BDF89A992780B5DF
:1051C0000895262FF999FECF1FBA92BD81BD20BD4B
:1051D0000FB6F894FA9AF99A0FBE01960895052E23
:1051E00097FB1EF400940E94062957FD07D00E94E9
:1051F000582907FC03D04EF40C940629509540958D
:10520000309521953F4F4F4F5F4F08959095809572
:10521000709561957F4F8F4F9F4F08950E947A2917
:10522000A59F900DB49F900DA49F800D911D1124FA
:105230000895B7FF0C940E290E940E29821B930B30
:1052400008952F923F924F925F926F927F928F922A
:105250009F92AF92BF92CF92DF92EF92FF920F9305
:105260001F93CF93DF93CDB7DEB7CA1BDB0B0FB60F
:10527000F894DEBF0FBECDBF09942A8839884888CC
:105280005F846E847D848C849B84AA84B984C88462
:10529000DF80EE80FD800C811B81AA81B981CE0F59
:1052A000D11D0FB6F894DEBF0FBECDBFED0108953E
:1052B000A1E21A2EAA1BBB1BFD010DC0AA1FBB1F1A
:1052C000EE1FFF1FA217B307E407F50720F0A21B8C
:1052D000B30BE40BF50B661F771F881F991F1A94F9
:1052E00069F760957095809590959B01AC01BD0123
:1052F000CF010895A29FB001B39FC001A39F700D7D
:10530000811D1124911DB29F700D811D1124911DCD
:1053100008955058BB27AA270E94A1290C949F28C2
:105320000E94912838F00E94982820F039F49F3F7D
:1053300019F426F40C948E280EF4E095E7FB0C94F7
:105340008828E92F0E94B02858F3BA17620773071C
:105350008407950720F079F4A6F50C94D2280EF472
:10536000E0950B2EBA2FA02D0B01B90190010C0175
:10537000CA01A0011124FF27591B99F0593F50F48D
:10538000503E68F11A16F040A22F232F342F4427E5
:10539000585FF3CF469537952795A795F0405395DD
:1053A000C9F77EF41F16BA0B620B730B840BBAF0AD
:1053B0009150A1F0FF0FBB1F661F771F881FC2F718
:1053C0000EC0BA0F621F731F841F48F4879577952C
:1053D0006795B795F7959E3F08F0B0CF9395880FE6
:1053E00008F09927EE0F9795879508950E94A52AB2
:1053F000E3950C94CE2A0E940F2A0C949F280E94B9
:10540000982858F00E94912840F029F45F3F29F035
:105410000C94882851110C94D3280C948E280E9447
:10542000B02868F39923B1F3552391F3951B550BDD
:10543000BB27AA2762177307840738F09F5F5F4F67
:10544000220F331F441FAA1FA9F335D00E2E3AF0A6
:10545000E0E832D091505040E695001CCAF72BD0BE
:10546000FE2F29D0660F771F881FBB1F261737070F
:105470004807AB07B0E809F0BB0B802DBF01FF2741
:1054800093585F4F3AF09E3F510578F00C9488286E
:105490000C94D3285F3FE4F3983ED4F38695779538
:1054A0006795B795F7959F5FC9F7880F911D9695FA
:1054B000879597F90895E1E0660F771F881FBB1F56
:1054C000621773078407BA0720F0621B730B840B03
:1054D000BA0BEE1F88F7E09508950E94742A68942D
:1054E000B1110C94D32808950E94B82888F09F57D2
:1054F00098F0B92F9927B751B0F0E1F0660F771FF8
:10550000881F991F1AF0BA95C9F714C0B13091F0ED
:105510000E94D228B1E008950C94D228672F782FEA
:105520008827B85F39F0B93FCCF3869577956795B2
:10553000B395D9F73EF490958095709561957F4F1E
:105540008F4F9F4F08950C948E280E94B828D8F34F
:10555000E894E0E0BB279F57F0F02AED3FE049ECEC
:1055600006C0EE0FBB0F661F771F881F28F0B23AE8
:1055700062077307840728F0B25A620B730B840B1F
:10558000E3959A9572F7803830F49A95BB0F661FB1
:10559000771F881FD2F790480C94EC2AEF93E0FF16
:1055A00007C0A2EA2AED3FE049EC5FEB0E94A12987
:1055B0000E949F280F90039401FC9058E0E8F0E0CF
:1055C0000C94F82A9F930E94A52A0F9007FCEE5F87
:1055D0000C94CE2A9F3F31F0915020F48795779517
:1055E0006795B795880F911D9695879597F90895BA
:1055F0009F938F937F936F93FF93EF939B01AC01E6
:105600000E941B28EF91FF910E940C2B2F913F913C
:105610004F915F910C941B28DF93CF931F930F93AF
:10562000FF92EF92DF927B018C01689406C0DA2E24
:10563000EF010E942E28FE01E894A5912591359155
:1056400045915591A6F3EF010E94A129FE01970112
:10565000A801DA9469F7DF90EF90FF900F911F9106
:10566000CF91DF910895991B79E004C0991F961797
:1056700008F0961B881F7A95C9F780950895AA1B94
:10568000BB1B51E107C0AA1FBB1FA617B70710F02D
:10569000A61BB70B881F991F5A95A9F7809590955F
:1056A000BC01CD010895EE0FFF1F0590F491E02D90
:1056B00009940E947A29332312F48A1B9B0B0C94C1
:1056C000632B0E947A29B7FF0895821B930B0895DC
:1056D000CF93DF938230910510F482E090E0E09167
:1056E0001D06F0911E0620E030E0C0E0D0E03097CB
:1056F00011F14081518148175907C0F048175907E7
:1057000061F482819381209719F09B838A832BC057
:1057100090931E0680931D0626C02115310519F0B1
:105720004217530718F49A01BE01DF01EF0102800E
:10573000F381E02DDCCF2115310509F1281B390B50
:105740002430310590F412968D919C911397611538
:10575000710521F0FB019383828304C090931E06A0
:1057600080931D06FD01329644C0FD01E20FF31F38
:1057700081939193225031092D933C933AC020910B
:105780001B0630911C06232B41F42091AB02309173
:10579000AC0230931C0620931B062091A902309185
:1057A000AA022115310541F42DB73EB74091AD0253
:1057B0005091AE02241B350BE0911B06F0911C06A4
:1057C000E217F307A0F42E1B3F0B2817390778F0D8
:1057D000AC014E5F5F4F2417350748F04E0F5F1F37
:1057E00050931C0640931B068193919302C0E0E006
:1057F000F0E0CF01DF91CF9108950F931F93CF93E6
:10580000DF93009709F48CC0FC0132971382128257
:1058100000911D0610911E060115110581F42081CD
:105820003181820F931F20911B0630911C0628178F
:10583000390779F5F0931C06E0931B0671C0D80177
:1058400040E050E0AE17BF0750F412962D913C9106
:105850001397AD012115310509F1D901F3CF9D0150
:10586000DA013383228360817181860F971F82174B
:10587000930769F4EC0128813981260F371F2E5FC9
:105880003F4F318320838A819B8193838283452B81
:1058900029F4F0931E06E0931D0642C01396FC9374
:1058A000EE931297ED01499159919E01240F351FF6
:1058B000E217F30771F480819181840F951F02969E
:1058C00011969C938E938281938113969C938E93D1
:1058D0001297E0E0F0E0D80112968D919C91139719
:1058E000009719F0F8018C01F6CF8D919C919801E9
:1058F0002E5F3F4F820F931F20911B0630911C0695
:105900002817390769F4309729F410921E0610926F
:105910001D0602C01382128210931C0600931B0600
:10592000DF91CF911F910F910895A0E0B0E0EBE9D6
:10593000FCE20C942529EC01009721F4CB010E9494
:10594000682BB8C0FC01E60FF71F9C0122503109FB
:10595000E217F30708F4ACC0D9010D911C9111971F
:1059600006171707B0F00530110508F49FC0C801ED
:1059700004978617970708F499C002501109061B6F
:10598000170B019311936D937C93CF010E94FD2B14
:105990008DC05B01A01AB10A4C01800E911EA0912E
:1059A0001D06B0911E0640E050E0E12CF12C10974E
:1059B00009F44AC0A815B905D1F56D907C901197EE
:1059C000630182E0C80ED11CCA14DB0480F1A3017C
:1059D0004A195B096A0182E0C80ED11C1296BC907C
:1059E00012971396AC91B5E0CB16D10440F0B28279
:1059F000A38351834083D9016D937C930AC00E5FCA
:105A00001F4FC301800F911FF90191838083EB2DFC
:105A1000FA2FE114F10431F0D7011396FC93EE93C1
:105A2000129744C0F0931E06E0931D063FC08D916F
:105A30009C9111974817590708F4AC017D01129603
:105A40000D90BC91A02DB3CF80911B0690911C06A8
:105A500088159905E1F446175707C8F48091A90203
:105A60009091AA02009741F48DB79EB74091AD0284
:105A70005091AE02841B950BE817F907C8F4F09318
:105A80001C06E0931B06F901718360830FC0CB01F4
:105A90000E94682B7C01009759F0A801BE010E946A
:105AA0005F2DCE010E94FD2BC70104C0CE0102C0B4
:105AB00080E090E0CDB7DEB7EEE00C944129FB0129
:105AC000DC0102C001900D9241505040D8F708957A
:105AD000FB01DC0101900D920020E1F7089518E030
